{
  "contractName": "SupplyChain",
  "abi": [
    {
      "inputs": [],
      "stateMutability": "nonpayable",
      "type": "constructor"
    },
    {
      "anonymous": false,
      "inputs": [
        {
          "indexed": false,
          "internalType": "string",
          "name": "id",
          "type": "string"
        },
        {
          "indexed": false,
          "internalType": "string",
          "name": "name",
          "type": "string"
        }
      ],
      "name": "ProductAdded",
      "type": "event"
    },
    {
      "anonymous": false,
      "inputs": [
        {
          "indexed": false,
          "internalType": "string",
          "name": "productId",
          "type": "string"
        },
        {
          "indexed": false,
          "internalType": "string",
          "name": "location",
          "type": "string"
        },
        {
          "indexed": false,
          "internalType": "uint256",
          "name": "timestamp",
          "type": "uint256"
        },
        {
          "indexed": false,
          "internalType": "uint256",
          "name": "totalQuantity",
          "type": "uint256"
        },
        {
          "indexed": false,
          "internalType": "string",
          "name": "from",
          "type": "string"
        },
        {
          "indexed": false,
          "internalType": "string",
          "name": "to",
          "type": "string"
        },
        {
          "indexed": false,
          "internalType": "string",
          "name": "vendor",
          "type": "string"
        }
      ],
      "name": "StatusAdded",
      "type": "event"
    },
    {
      "anonymous": false,
      "inputs": [
        {
          "indexed": true,
          "internalType": "uint256",
          "name": "id",
          "type": "uint256"
        },
        {
          "indexed": false,
          "internalType": "string",
          "name": "name",
          "type": "string"
        }
      ],
      "name": "WorkerAdded",
      "type": "event"
    },
    {
      "inputs": [],
      "name": "owner",
      "outputs": [
        {
          "internalType": "address",
          "name": "",
          "type": "address"
        }
      ],
      "stateMutability": "view",
      "type": "function",
      "constant": true
    },
    {
      "inputs": [
        {
          "internalType": "string",
          "name": "",
          "type": "string"
        },
        {
          "internalType": "uint256",
          "name": "",
          "type": "uint256"
        }
      ],
      "name": "productStatus",
      "outputs": [
        {
          "internalType": "string",
          "name": "location",
          "type": "string"
        },
        {
          "internalType": "uint256",
          "name": "timestamp",
          "type": "uint256"
        },
        {
          "internalType": "uint256",
          "name": "totalQuantity",
          "type": "uint256"
        },
        {
          "internalType": "string",
          "name": "from",
          "type": "string"
        },
        {
          "internalType": "string",
          "name": "to",
          "type": "string"
        },
        {
          "internalType": "string",
          "name": "vendor",
          "type": "string"
        }
      ],
      "stateMutability": "view",
      "type": "function",
      "constant": true
    },
    {
      "inputs": [
        {
          "internalType": "uint256",
          "name": "",
          "type": "uint256"
        }
      ],
      "name": "products",
      "outputs": [
        {
          "internalType": "string",
          "name": "id",
          "type": "string"
        },
        {
          "internalType": "string",
          "name": "name",
          "type": "string"
        },
        {
          "internalType": "string",
          "name": "price",
          "type": "string"
        },
        {
          "internalType": "string",
          "name": "description",
          "type": "string"
        },
        {
          "internalType": "string",
          "name": "manufacturing",
          "type": "string"
        },
        {
          "internalType": "uint256",
          "name": "timestamp",
          "type": "uint256"
        }
      ],
      "stateMutability": "view",
      "type": "function",
      "constant": true
    },
    {
      "inputs": [],
      "name": "workerCount",
      "outputs": [
        {
          "internalType": "uint256",
          "name": "",
          "type": "uint256"
        }
      ],
      "stateMutability": "view",
      "type": "function",
      "constant": true
    },
    {
      "inputs": [
        {
          "internalType": "uint256",
          "name": "",
          "type": "uint256"
        }
      ],
      "name": "workers",
      "outputs": [
        {
          "internalType": "string",
          "name": "name",
          "type": "string"
        },
        {
          "internalType": "uint256",
          "name": "id",
          "type": "uint256"
        }
      ],
      "stateMutability": "view",
      "type": "function",
      "constant": true
    },
    {
      "inputs": [
        {
          "internalType": "string",
          "name": "_name",
          "type": "string"
        }
      ],
      "name": "addWorker",
      "outputs": [],
      "stateMutability": "nonpayable",
      "type": "function"
    },
    {
      "inputs": [
        {
          "internalType": "string",
          "name": "_name",
          "type": "string"
        },
        {
          "internalType": "string",
          "name": "_price",
          "type": "string"
        },
        {
          "internalType": "string",
          "name": "_description",
          "type": "string"
        },
        {
          "internalType": "string",
          "name": "_id",
          "type": "string"
        },
        {
          "internalType": "string",
          "name": "_manufacturing",
          "type": "string"
        }
      ],
      "name": "addProduct",
      "outputs": [],
      "stateMutability": "nonpayable",
      "type": "function"
    },
    {
      "inputs": [
        {
          "internalType": "string",
          "name": "_location",
          "type": "string"
        },
        {
          "internalType": "string",
          "name": "_id",
          "type": "string"
        },
        {
          "internalType": "uint256",
          "name": "_totalQuantity",
          "type": "uint256"
        },
        {
          "internalType": "string",
          "name": "_from",
          "type": "string"
        },
        {
          "internalType": "string",
          "name": "_to",
          "type": "string"
        },
        {
          "internalType": "string",
          "name": "_vendor",
          "type": "string"
        }
      ],
      "name": "addStatus",
      "outputs": [],
      "stateMutability": "nonpayable",
      "type": "function"
    },
    {
      "inputs": [],
      "name": "getWorkersList",
      "outputs": [
        {
          "components": [
            {
              "internalType": "string",
              "name": "name",
              "type": "string"
            },
            {
              "internalType": "uint256",
              "name": "id",
              "type": "uint256"
            }
          ],
          "internalType": "struct SupplyChain.Worker[]",
          "name": "",
          "type": "tuple[]"
        }
      ],
      "stateMutability": "view",
      "type": "function",
      "constant": true
    },
    {
      "inputs": [
        {
          "internalType": "string",
          "name": "_id",
          "type": "string"
        }
      ],
      "name": "getProductStatus",
      "outputs": [
        {
          "components": [
            {
              "internalType": "string",
              "name": "location",
              "type": "string"
            },
            {
              "internalType": "uint256",
              "name": "timestamp",
              "type": "uint256"
            },
            {
              "internalType": "uint256",
              "name": "totalQuantity",
              "type": "uint256"
            },
            {
              "internalType": "string",
              "name": "from",
              "type": "string"
            },
            {
              "internalType": "string",
              "name": "to",
              "type": "string"
            },
            {
              "internalType": "string",
              "name": "vendor",
              "type": "string"
            }
          ],
          "internalType": "struct SupplyChain.Status[]",
          "name": "",
          "type": "tuple[]"
        }
      ],
      "stateMutability": "view",
      "type": "function",
      "constant": true
    },
    {
      "inputs": [],
      "name": "getProducts",
      "outputs": [
        {
          "components": [
            {
              "internalType": "string",
              "name": "id",
              "type": "string"
            },
            {
              "internalType": "string",
              "name": "name",
              "type": "string"
            },
            {
              "internalType": "string",
              "name": "price",
              "type": "string"
            },
            {
              "internalType": "string",
              "name": "description",
              "type": "string"
            },
            {
              "internalType": "string",
              "name": "manufacturing",
              "type": "string"
            },
            {
              "internalType": "uint256",
              "name": "timestamp",
              "type": "uint256"
            }
          ],
          "internalType": "struct SupplyChain.Product[]",
          "name": "",
          "type": "tuple[]"
        }
      ],
      "stateMutability": "view",
      "type": "function",
      "constant": true
    },
    {
      "inputs": [
        {
          "internalType": "string",
          "name": "_productId",
          "type": "string"
        }
      ],
      "name": "checkAuthenticity",
      "outputs": [
        {
          "internalType": "bool",
          "name": "",
          "type": "bool"
        }
      ],
      "stateMutability": "view",
      "type": "function",
      "constant": true
    }
  ],
  "bytecode": "0x608060405234801561001057600080fd5b50336000806101000a81548173ffffffffffffffffffffffffffffffffffffffff021916908373ffffffffffffffffffffffffffffffffffffffff16021790555061244c806100606000396000f3fe608060405234801561001057600080fd5b50600436106100b45760003560e01c8063c29b2f2011610071578063c29b2f20146101a9578063e9e3b1cf146101c7578063ee2ab829146101f7578063ef6da8d414610215578063f1a22dc214610231578063f7a94f4b14610262576100b4565b80632ab3d588146100b95780633948b004146100d55780637acc0b201461010a5780638da5cb5b1461013f5780639f62af071461015d578063a304fbc31461018d575b600080fd5b6100d360048036038101906100ce9190611785565b610280565b005b6100ef60048036038101906100ea9190611886565b6103c9565b6040516101019695949392919061204b565b60405180910390f35b610124600480360381019061011f91906118da565b610658565b60405161013696959493929190611f05565b60405180910390f35b61014761094c565b6040516101549190611e10565b60405180910390f35b61017760048036038101906101729190611655565b610970565b6040516101849190611e4d565b60405180910390f35b6101a760048036038101906101a29190611655565b610c49565b005b6101b1610d97565b6040516101be9190611e2b565b60405180910390f35b6101e160048036038101906101dc9190611655565b6110da565b6040516101ee9190611e91565b60405180910390f35b6101ff6111b5565b60405161020c9190611e6f565b60405180910390f35b61022f600480360381019061022a9190611696565b6112b0565b005b61024b600480360381019061024691906118da565b611473565b60405161025992919061201b565b60405180910390f35b61026a61152f565b60405161027791906120e8565b60405180910390f35b6004856040516102909190611de2565b90815260200160405180910390206040518060c001604052808881526020014281526020018681526020018581526020018481526020018381525090806001815401808255809150506001900390600052602060002090600602016000909190919091506000820151816000019080519060200190610310929190611535565b5060208201518160010155604082015181600201556060820151816003019080519060200190610341929190611535565b50608082015181600401908051906020019061035e929190611535565b5060a082015181600501908051906020019061037b929190611535565b5050507f66f523281ff7b01a4f1699c57d5f900f323ead11d66fc99c9d8998f085251c24858742878787876040516103b99796959493929190611f89565b60405180910390a1505050505050565b60048280516020810182018051848252602083016020850120818352809550505050505081815481106103fb57600080fd5b90600052602060002090600602016000915091505080600001805461041f906122e6565b80601f016020809104026020016040519081016040528092919081815260200182805461044b906122e6565b80156104985780601f1061046d57610100808354040283529160200191610498565b820191906000526020600020905b81548152906001019060200180831161047b57829003601f168201915b5050505050908060010154908060020154908060030180546104b9906122e6565b80601f01602080910402602001604051908101604052809291908181526020018280546104e5906122e6565b80156105325780601f1061050757610100808354040283529160200191610532565b820191906000526020600020905b81548152906001019060200180831161051557829003601f168201915b505050505090806004018054610547906122e6565b80601f0160208091040260200160405190810160405280929190818152602001828054610573906122e6565b80156105c05780601f10610595576101008083540402835291602001916105c0565b820191906000526020600020905b8154815290600101906020018083116105a357829003601f168201915b5050505050908060050180546105d5906122e6565b80601f0160208091040260200160405190810160405280929190818152602001828054610601906122e6565b801561064e5780601f106106235761010080835404028352916020019161064e565b820191906000526020600020905b81548152906001019060200180831161063157829003601f168201915b5050505050905086565b6002818154811061066857600080fd5b906000526020600020906006020160009150905080600001805461068b906122e6565b80601f01602080910402602001604051908101604052809291908181526020018280546106b7906122e6565b80156107045780601f106106d957610100808354040283529160200191610704565b820191906000526020600020905b8154815290600101906020018083116106e757829003601f168201915b505050505090806001018054610719906122e6565b80601f0160208091040260200160405190810160405280929190818152602001828054610745906122e6565b80156107925780601f1061076757610100808354040283529160200191610792565b820191906000526020600020905b81548152906001019060200180831161077557829003601f168201915b5050505050908060020180546107a7906122e6565b80601f01602080910402602001604051908101604052809291908181526020018280546107d3906122e6565b80156108205780601f106107f557610100808354040283529160200191610820565b820191906000526020600020905b81548152906001019060200180831161080357829003601f168201915b505050505090806003018054610835906122e6565b80601f0160208091040260200160405190810160405280929190818152602001828054610861906122e6565b80156108ae5780601f10610883576101008083540402835291602001916108ae565b820191906000526020600020905b81548152906001019060200180831161089157829003601f168201915b5050505050908060040180546108c3906122e6565b80601f01602080910402602001604051908101604052809291908181526020018280546108ef906122e6565b801561093c5780601f106109115761010080835404028352916020019161093c565b820191906000526020600020905b81548152906001019060200180831161091f57829003601f168201915b5050505050908060050154905086565b60008054906101000a900473ffffffffffffffffffffffffffffffffffffffff1681565b60606004826040516109829190611de2565b9081526020016040518091039020805480602002602001604051908101604052809291908181526020016000905b82821015610c3e57838290600052602060002090600602016040518060c00160405290816000820180546109e3906122e6565b80601f0160208091040260200160405190810160405280929190818152602001828054610a0f906122e6565b8015610a5c5780601f10610a3157610100808354040283529160200191610a5c565b820191906000526020600020905b815481529060010190602001808311610a3f57829003601f168201915b505050505081526020016001820154815260200160028201548152602001600382018054610a89906122e6565b80601f0160208091040260200160405190810160405280929190818152602001828054610ab5906122e6565b8015610b025780601f10610ad757610100808354040283529160200191610b02565b820191906000526020600020905b815481529060010190602001808311610ae557829003601f168201915b50505050508152602001600482018054610b1b906122e6565b80601f0160208091040260200160405190810160405280929190818152602001828054610b47906122e6565b8015610b945780601f10610b6957610100808354040283529160200191610b94565b820191906000526020600020905b815481529060010190602001808311610b7757829003601f168201915b50505050508152602001600582018054610bad906122e6565b80601f0160208091040260200160405190810160405280929190818152602001828054610bd9906122e6565b8015610c265780601f10610bfb57610100808354040283529160200191610c26565b820191906000526020600020905b815481529060010190602001808311610c0957829003601f168201915b505050505081525050815260200190600101906109b0565b505050509050919050565b60008054906101000a900473ffffffffffffffffffffffffffffffffffffffff1673ffffffffffffffffffffffffffffffffffffffff163373ffffffffffffffffffffffffffffffffffffffff1614610cd7576040517f08c379a0000000000000000000000000000000000000000000000000000000008152600401610cce906120c8565b60405180910390fd5b6003604051806040016040528083815260200160015481525090806001815401808255809150506001900390600052602060002090600202016000909190919091506000820151816000019080519060200190610d35929190611535565b506020820151816001015550506001547f09c30f8011e32fff06b52b918b85607213c719d36a1d0f313471ba590f09a4a982604051610d749190611eac565b60405180910390a260016000815480929190610d8f90612318565b919050555050565b60606002805480602002602001604051908101604052809291908181526020016000905b828210156110d157838290600052602060002090600602016040518060c0016040529081600082018054610dee906122e6565b80601f0160208091040260200160405190810160405280929190818152602001828054610e1a906122e6565b8015610e675780601f10610e3c57610100808354040283529160200191610e67565b820191906000526020600020905b815481529060010190602001808311610e4a57829003601f168201915b50505050508152602001600182018054610e80906122e6565b80601f0160208091040260200160405190810160405280929190818152602001828054610eac906122e6565b8015610ef95780601f10610ece57610100808354040283529160200191610ef9565b820191906000526020600020905b815481529060010190602001808311610edc57829003601f168201915b50505050508152602001600282018054610f12906122e6565b80601f0160208091040260200160405190810160405280929190818152602001828054610f3e906122e6565b8015610f8b5780601f10610f6057610100808354040283529160200191610f8b565b820191906000526020600020905b815481529060010190602001808311610f6e57829003601f168201915b50505050508152602001600382018054610fa4906122e6565b80601f0160208091040260200160405190810160405280929190818152602001828054610fd0906122e6565b801561101d5780601f10610ff25761010080835404028352916020019161101d565b820191906000526020600020905b81548152906001019060200180831161100057829003601f168201915b50505050508152602001600482018054611036906122e6565b80601f0160208091040260200160405190810160405280929190818152602001828054611062906122e6565b80156110af5780601f10611084576101008083540402835291602001916110af565b820191906000526020600020905b81548152906001019060200180831161109257829003601f168201915b5050505050815260200160058201548152505081526020019060010190610dbb565b50505050905090565b600080600090505b6002805490508110156111aa57826040516020016111009190611de2565b6040516020818303038152906040528051906020012060028281548110611150577f4e487b7100000000000000000000000000000000000000000000000000000000600052603260045260246000fd5b90600052602060002090600602016000016040516020016111719190611df9565b6040516020818303038152906040528051906020012014156111975760019150506111b0565b80806111a290612318565b9150506110e2565b50600090505b919050565b60606003805480602002602001604051908101604052809291908181526020016000905b828210156112a7578382906000526020600020906002020160405180604001604052908160008201805461120c906122e6565b80601f0160208091040260200160405190810160405280929190818152602001828054611238906122e6565b80156112855780601f1061125a57610100808354040283529160200191611285565b820191906000526020600020905b81548152906001019060200180831161126857829003601f168201915b50505050508152602001600182015481525050815260200190600101906111d9565b50505050905090565b60008054906101000a900473ffffffffffffffffffffffffffffffffffffffff1673ffffffffffffffffffffffffffffffffffffffff163373ffffffffffffffffffffffffffffffffffffffff161461133e576040517f08c379a0000000000000000000000000000000000000000000000000000000008152600401611335906120c8565b60405180910390fd5b60026040518060c0016040528084815260200187815260200186815260200185815260200183815260200142815250908060018154018082558091505060019003906000526020600020906006020160009091909190915060008201518160000190805190602001906113b2929190611535565b5060208201518160010190805190602001906113cf929190611535565b5060408201518160020190805190602001906113ec929190611535565b506060820151816003019080519060200190611409929190611535565b506080820151816004019080519060200190611426929190611535565b5060a0820151816005015550507f50d3c24bed1484121cd34fb35cea80691f70b0818948c325aef1206b134544338286604051611464929190611ece565b60405180910390a15050505050565b6003818154811061148357600080fd5b90600052602060002090600202016000915090508060000180546114a6906122e6565b80601f01602080910402602001604051908101604052809291908181526020018280546114d2906122e6565b801561151f5780601f106114f45761010080835404028352916020019161151f565b820191906000526020600020905b81548152906001019060200180831161150257829003601f168201915b5050505050908060010154905082565b60015481565b828054611541906122e6565b90600052602060002090601f01602090048101928261156357600085556115aa565b82601f1061157c57805160ff19168380011785556115aa565b828001600101855582156115aa579182015b828111156115a957825182559160200191906001019061158e565b5b5090506115b791906115bb565b5090565b5b808211156115d45760008160009055506001016115bc565b5090565b60006115eb6115e684612134565b612103565b90508281526020810184848401111561160357600080fd5b61160e8482856122a4565b509392505050565b600082601f83011261162757600080fd5b81356116378482602086016115d8565b91505092915050565b60008135905061164f816123ff565b92915050565b60006020828403121561166757600080fd5b600082013567ffffffffffffffff81111561168157600080fd5b61168d84828501611616565b91505092915050565b600080600080600060a086880312156116ae57600080fd5b600086013567ffffffffffffffff8111156116c857600080fd5b6116d488828901611616565b955050602086013567ffffffffffffffff8111156116f157600080fd5b6116fd88828901611616565b945050604086013567ffffffffffffffff81111561171a57600080fd5b61172688828901611616565b935050606086013567ffffffffffffffff81111561174357600080fd5b61174f88828901611616565b925050608086013567ffffffffffffffff81111561176c57600080fd5b61177888828901611616565b9150509295509295909350565b60008060008060008060c0878903121561179e57600080fd5b600087013567ffffffffffffffff8111156117b857600080fd5b6117c489828a01611616565b965050602087013567ffffffffffffffff8111156117e157600080fd5b6117ed89828a01611616565b95505060406117fe89828a01611640565b945050606087013567ffffffffffffffff81111561181b57600080fd5b61182789828a01611616565b935050608087013567ffffffffffffffff81111561184457600080fd5b61185089828a01611616565b92505060a087013567ffffffffffffffff81111561186d57600080fd5b61187989828a01611616565b9150509295509295509295565b6000806040838503121561189957600080fd5b600083013567ffffffffffffffff8111156118b357600080fd5b6118bf85828601611616565b92505060206118d085828601611640565b9150509250929050565b6000602082840312156118ec57600080fd5b60006118fa84828501611640565b91505092915050565b600061190f8383611c44565b905092915050565b60006119238383611ce9565b905092915050565b60006119378383611d87565b905092915050565b6119488161225c565b82525050565b6000611959826121a9565b61196381856121fc565b93508360208202850161197585612164565b8060005b858110156119b157848403895281516119928582611903565b945061199d836121d5565b925060208a01995050600181019050611979565b50829750879550505050505092915050565b60006119ce826121b4565b6119d8818561220d565b9350836020820285016119ea85612174565b8060005b85811015611a265784840389528151611a078582611917565b9450611a12836121e2565b925060208a019950506001810190506119ee565b50829750879550505050505092915050565b6000611a43826121bf565b611a4d818561221e565b935083602082028501611a5f85612184565b8060005b85811015611a9b5784840389528151611a7c858261192b565b9450611a87836121ef565b925060208a01995050600181019050611a63565b50829750879550505050505092915050565b611ab68161226e565b82525050565b6000611ac7826121ca565b611ad1818561222f565b9350611ae18185602086016122b3565b611aea816123ee565b840191505092915050565b6000611b00826121ca565b611b0a8185612240565b9350611b1a8185602086016122b3565b611b23816123ee565b840191505092915050565b6000611b39826121ca565b611b438185612251565b9350611b538185602086016122b3565b80840191505092915050565b60008154611b6c816122e6565b611b768186612251565b94506001821660008114611b915760018114611ba257611bd5565b60ff19831686528186019350611bd5565b611bab85612194565b60005b83811015611bcd57815481890152600182019150602081019050611bae565b838801955050505b50505092915050565b6000611beb602183612240565b91507f4f6e6c79206f776e65722063616e2063616c6c20746869732066756e6374696f60008301527f6e000000000000000000000000000000000000000000000000000000000000006020830152604082019050919050565b600060c0830160008301518482036000860152611c618282611abc565b91505060208301518482036020860152611c7b8282611abc565b91505060408301518482036040860152611c958282611abc565b91505060608301518482036060860152611caf8282611abc565b91505060808301518482036080860152611cc98282611abc565b91505060a0830151611cde60a0860182611dc4565b508091505092915050565b600060c0830160008301518482036000860152611d068282611abc565b9150506020830151611d1b6020860182611dc4565b506040830151611d2e6040860182611dc4565b5060608301518482036060860152611d468282611abc565b91505060808301518482036080860152611d608282611abc565b91505060a083015184820360a0860152611d7a8282611abc565b9150508091505092915050565b60006040830160008301518482036000860152611da48282611abc565b9150506020830151611db96020860182611dc4565b508091505092915050565b611dcd8161229a565b82525050565b611ddc8161229a565b82525050565b6000611dee8284611b2e565b915081905092915050565b6000611e058284611b5f565b915081905092915050565b6000602082019050611e25600083018461193f565b92915050565b60006020820190508181036000830152611e45818461194e565b905092915050565b60006020820190508181036000830152611e6781846119c3565b905092915050565b60006020820190508181036000830152611e898184611a38565b905092915050565b6000602082019050611ea66000830184611aad565b92915050565b60006020820190508181036000830152611ec68184611af5565b905092915050565b60006040820190508181036000830152611ee88185611af5565b90508181036020830152611efc8184611af5565b90509392505050565b600060c0820190508181036000830152611f1f8189611af5565b90508181036020830152611f338188611af5565b90508181036040830152611f478187611af5565b90508181036060830152611f5b8186611af5565b90508181036080830152611f6f8185611af5565b9050611f7e60a0830184611dd3565b979650505050505050565b600060e0820190508181036000830152611fa3818a611af5565b90508181036020830152611fb78189611af5565b9050611fc66040830188611dd3565b611fd36060830187611dd3565b8181036080830152611fe58186611af5565b905081810360a0830152611ff98185611af5565b905081810360c083015261200d8184611af5565b905098975050505050505050565b600060408201905081810360008301526120358185611af5565b90506120446020830184611dd3565b9392505050565b600060c08201905081810360008301526120658189611af5565b90506120746020830188611dd3565b6120816040830187611dd3565b81810360608301526120938186611af5565b905081810360808301526120a78185611af5565b905081810360a08301526120bb8184611af5565b9050979650505050505050565b600060208201905081810360008301526120e181611bde565b9050919050565b60006020820190506120fd6000830184611dd3565b92915050565b6000604051905081810181811067ffffffffffffffff8211171561212a576121296123bf565b5b8060405250919050565b600067ffffffffffffffff82111561214f5761214e6123bf565b5b601f19601f8301169050602081019050919050565b6000819050602082019050919050565b6000819050602082019050919050565b6000819050602082019050919050565b60008190508160005260206000209050919050565b600081519050919050565b600081519050919050565b600081519050919050565b600081519050919050565b6000602082019050919050565b6000602082019050919050565b6000602082019050919050565b600082825260208201905092915050565b600082825260208201905092915050565b600082825260208201905092915050565b600082825260208201905092915050565b600082825260208201905092915050565b600081905092915050565b60006122678261227a565b9050919050565b60008115159050919050565b600073ffffffffffffffffffffffffffffffffffffffff82169050919050565b6000819050919050565b82818337600083830152505050565b60005b838110156122d15780820151818401526020810190506122b6565b838111156122e0576000848401525b50505050565b600060028204905060018216806122fe57607f821691505b6020821081141561231257612311612390565b5b50919050565b60006123238261229a565b91507fffffffffffffffffffffffffffffffffffffffffffffffffffffffffffffffff82141561235657612355612361565b5b600182019050919050565b7f4e487b7100000000000000000000000000000000000000000000000000000000600052601160045260246000fd5b7f4e487b7100000000000000000000000000000000000000000000000000000000600052602260045260246000fd5b7f4e487b7100000000000000000000000000000000000000000000000000000000600052604160045260246000fd5b6000601f19601f8301169050919050565b6124088161229a565b811461241357600080fd5b5056fea264697066735822122061f6578b0bd37347515a78e80315b78357bca15a86174c4a5c013a96d7a9307964736f6c63430008000033",
  "immutableReferences": {},
  "source": "// SPDX-License-Identifier: GPL-3.0\r\npragma solidity >=0.8.0;\r\n\r\ncontract SupplyChain {\r\n    address public owner;\r\n    uint256 public workerCount;\r\n\r\n    struct Product {\r\n        string id;\r\n        string name;\r\n        string price;\r\n        string description;\r\n        string manufacturing;\r\n        uint256 timestamp;\r\n    }\r\n\r\n    struct Status {\r\n        string location;\r\n        uint256 timestamp;\r\n        uint256 totalQuantity;\r\n        string from;\r\n        string to;\r\n        string vendor;\r\n    }\r\n\r\n    struct Worker {\r\n        string name;\r\n        uint256 id;\r\n    }\r\n\r\n    Product[] public products;\r\n    Worker[] public workers;\r\n    mapping(string => Status[]) public productStatus;\r\n\r\n    event WorkerAdded(uint256 indexed id, string name);\r\n    event ProductAdded(string id, string name);\r\n    event StatusAdded(string productId, string location, uint256 timestamp, uint256 totalQuantity, string from, string to, string vendor);\r\n\r\n    modifier onlyOwner() {\r\n        require(msg.sender == owner, \"Only owner can call this function\");\r\n        _;\r\n    }\r\n\r\n    constructor() {\r\n        owner = msg.sender;\r\n    }\r\n\r\n    function addWorker(string memory _name) external onlyOwner {\r\n        workers.push(Worker(_name, workerCount));\r\n        emit WorkerAdded(workerCount, _name);\r\n        workerCount++;\r\n    }\r\n\r\n    function addProduct(string memory _name, string memory _price, string memory _description, string memory _id, string memory _manufacturing) external onlyOwner {\r\n        products.push(Product(_id, _name, _price, _description, _manufacturing, block.timestamp));\r\n        emit ProductAdded(_id, _name);\r\n    }\r\n\r\n    function addStatus(string memory _location, string memory _id, uint256 _totalQuantity, string memory _from, string memory _to, string memory _vendor) external {\r\n        productStatus[_id].push(Status(_location, block.timestamp, _totalQuantity, _from, _to, _vendor));\r\n        emit StatusAdded(_id, _location, block.timestamp, _totalQuantity, _from, _to,_vendor);\r\n    }\r\n\r\n    function getWorkersList() external view returns (Worker[] memory) {\r\n        return workers;\r\n    }\r\n\r\n    function getProductStatus(string memory _id) external view returns (Status[] memory) {\r\n        return productStatus[_id];\r\n    }\r\n\r\n    function getProducts() external view returns (Product[] memory) {\r\n        return products;\r\n    }\r\n\r\n    function checkAuthenticity(string memory _productId) public view returns (bool) {\r\n        for (uint256 i = 0; i < products.length; i++) {\r\n            if (keccak256(abi.encodePacked(products[i].id)) == keccak256(abi.encodePacked(_productId))) {\r\n                return true;\r\n            }\r\n        }\r\n        return false;\r\n    }\r\n}",
  "sourcePath": "C:\\Users\\malth\\Desktop\\blockchain project\\testing\\backend\\contracts\\SupplyChain.sol",
  "compiler": {
    "name": "solc",
    "version": "0.8.0+commit.c7dfd78e.Emscripten.clang"
  },
  "schemaVersion": "3.4.16",
  "updatedAt": "2024-05-29T09:23:48.980Z",
  "networkType": "ethereum",
  "devdoc": {
    "kind": "dev",
    "methods": {},
    "version": 1
  },
  "userdoc": {
    "kind": "user",
    "methods": {},
    "version": 1
  }
}